{
  "contractName": "Election",
  "abi": [
    {
      "inputs": [],
      "stateMutability": "nonpayable",
      "type": "constructor"
    },
    {
      "anonymous": false,
      "inputs": [
        {
          "indexed": false,
          "internalType": "string",
          "name": "msg",
          "type": "string"
        },
        {
          "indexed": false,
          "internalType": "address",
          "name": "from",
          "type": "address"
        },
        {
          "indexed": false,
          "internalType": "uint256",
          "name": "to",
          "type": "uint256"
        }
      ],
      "name": "Log",
      "type": "event"
    },
    {
      "inputs": [],
      "name": "candidateCount",
      "outputs": [
        {
          "internalType": "uint256",
          "name": "",
          "type": "uint256"
        }
      ],
      "stateMutability": "view",
      "type": "function",
      "constant": true
    },
    {
      "inputs": [
        {
          "internalType": "uint256",
          "name": "",
          "type": "uint256"
        }
      ],
      "name": "candidates",
      "outputs": [
        {
          "internalType": "uint256",
          "name": "id",
          "type": "uint256"
        },
        {
          "internalType": "string",
          "name": "firstname",
          "type": "string"
        },
        {
          "internalType": "string",
          "name": "lastname",
          "type": "string"
        },
        {
          "internalType": "string",
          "name": "description",
          "type": "string"
        },
        {
          "internalType": "string",
          "name": "age",
          "type": "string"
        }
      ],
      "stateMutability": "view",
      "type": "function",
      "constant": true
    },
    {
      "inputs": [],
      "name": "name",
      "outputs": [
        {
          "internalType": "string",
          "name": "",
          "type": "string"
        }
      ],
      "stateMutability": "view",
      "type": "function",
      "constant": true
    },
    {
      "inputs": [
        {
          "internalType": "address",
          "name": "",
          "type": "address"
        }
      ],
      "name": "voters",
      "outputs": [
        {
          "internalType": "bool",
          "name": "",
          "type": "bool"
        }
      ],
      "stateMutability": "view",
      "type": "function",
      "constant": true
    },
    {
      "inputs": [
        {
          "internalType": "uint256",
          "name": "",
          "type": "uint256"
        }
      ],
      "name": "votes",
      "outputs": [
        {
          "internalType": "uint256",
          "name": "",
          "type": "uint256"
        }
      ],
      "stateMutability": "view",
      "type": "function",
      "constant": true
    },
    {
      "inputs": [
        {
          "internalType": "string",
          "name": "_firstname",
          "type": "string"
        },
        {
          "internalType": "string",
          "name": "_lastname",
          "type": "string"
        },
        {
          "internalType": "string",
          "name": "_description",
          "type": "string"
        },
        {
          "internalType": "string",
          "name": "_age",
          "type": "string"
        }
      ],
      "name": "addCandidate",
      "outputs": [],
      "stateMutability": "nonpayable",
      "type": "function"
    },
    {
      "inputs": [
        {
          "internalType": "uint256",
          "name": "_id",
          "type": "uint256"
        }
      ],
      "name": "addVote",
      "outputs": [],
      "stateMutability": "nonpayable",
      "type": "function"
    },
    {
      "inputs": [],
      "name": "getAllCandidates",
      "outputs": [
        {
          "components": [
            {
              "internalType": "uint256",
              "name": "id",
              "type": "uint256"
            },
            {
              "internalType": "string",
              "name": "firstname",
              "type": "string"
            },
            {
              "internalType": "string",
              "name": "lastname",
              "type": "string"
            },
            {
              "internalType": "string",
              "name": "description",
              "type": "string"
            },
            {
              "internalType": "string",
              "name": "age",
              "type": "string"
            },
            {
              "internalType": "uint256",
              "name": "votes",
              "type": "uint256"
            }
          ],
          "internalType": "struct Election.CandidateInformation[]",
          "name": "",
          "type": "tuple[]"
        }
      ],
      "stateMutability": "view",
      "type": "function",
      "constant": true
    },
    {
      "inputs": [],
      "name": "read",
      "outputs": [
        {
          "internalType": "string",
          "name": "",
          "type": "string"
        }
      ],
      "stateMutability": "view",
      "type": "function",
      "constant": true
    }
  ],
  "bytecode": "0x608060405260006004553480156200001657600080fd5b506040518060400160405280600881526020017f456c656374696f6e00000000000000000000000000000000000000000000000081525060009080519060200190620000649291906200006b565b5062000180565b82805462000079906200014a565b90600052602060002090601f0160209004810192826200009d5760008555620000e9565b82601f10620000b857805160ff1916838001178555620000e9565b82800160010185558215620000e9579182015b82811115620000e8578251825591602001919060010190620000cb565b5b509050620000f89190620000fc565b5090565b5b8082111562000117576000816000905550600101620000fd565b5090565b7f4e487b7100000000000000000000000000000000000000000000000000000000600052602260045260246000fd5b600060028204905060018216806200016357607f821691505b602082108114156200017a57620001796200011b565b5b50919050565b6114b080620001906000396000f3fe608060405234801561001057600080fd5b50600436106100935760003560e01c806342b03cc91161006657806342b03cc91461012457806357de26a4146101405780635df813301461015e578063a3ec138d1461018e578063a9a981a3146101be57610093565b80630383badc1461009857806306fdde03146100b45780632e6997fe146100d25780633477ee2e146100f0575b600080fd5b6100b260048036038101906100ad9190610c5c565b6101dc565b005b6100bc61030b565b6040516100c99190610d22565b60405180910390f35b6100da610399565b6040516100e79190610efd565b60405180910390f35b61010a60048036038101906101059190610c5c565b610702565b60405161011b959493929190610f2e565b60405180910390f35b61013e600480360381019061013991906110d2565b610958565b005b610148610a69565b6040516101559190610d22565b60405180910390f35b61017860048036038101906101739190610c5c565b610afb565b60405161018591906111a9565b60405180910390f35b6101a860048036038101906101a39190611222565b610b13565b6040516101b5919061126a565b60405180910390f35b6101c6610b33565b6040516101d391906111a9565b60405180910390f35b600454811080156102375750600360003373ffffffffffffffffffffffffffffffffffffffff1673ffffffffffffffffffffffffffffffffffffffff16815260200190815260200160002060009054906101000a900460ff16155b61024057600080fd5b6001600260008381526020019081526020016000205461026091906112b4565b60026000838152602001908152602001600020819055506001600360003373ffffffffffffffffffffffffffffffffffffffff1673ffffffffffffffffffffffffffffffffffffffff16815260200190815260200160002060006101000a81548160ff0219169083151502179055507f31f37e75fc861191c989b3f8011596a4c0dd2bd2b255a7072a7d94fdb895a7243382604051610300929190611365565b60405180910390a150565b60008054610318906113d0565b80601f0160208091040260200160405190810160405280929190818152602001828054610344906113d0565b80156103915780601f1061036657610100808354040283529160200191610391565b820191906000526020600020905b81548152906001019060200180831161037457829003601f168201915b505050505081565b6060600060045467ffffffffffffffff8111156103b9576103b8610fa7565b5b6040519080825280602002602001820160405280156103f257816020015b6103df610b39565b8152602001906001900390816103d75790505b50905060005b6004548110156106fa576000600160008381526020019081526020016000206040518060a00160405290816000820154815260200160018201805461043c906113d0565b80601f0160208091040260200160405190810160405280929190818152602001828054610468906113d0565b80156104b55780601f1061048a576101008083540402835291602001916104b5565b820191906000526020600020905b81548152906001019060200180831161049857829003601f168201915b505050505081526020016002820180546104ce906113d0565b80601f01602080910402602001604051908101604052809291908181526020018280546104fa906113d0565b80156105475780601f1061051c57610100808354040283529160200191610547565b820191906000526020600020905b81548152906001019060200180831161052a57829003601f168201915b50505050508152602001600382018054610560906113d0565b80601f016020809104026020016040519081016040528092919081815260200182805461058c906113d0565b80156105d95780601f106105ae576101008083540402835291602001916105d9565b820191906000526020600020905b8154815290600101906020018083116105bc57829003601f168201915b505050505081526020016004820180546105f2906113d0565b80601f016020809104026020016040519081016040528092919081815260200182805461061e906113d0565b801561066b5780601f106106405761010080835404028352916020019161066b565b820191906000526020600020905b81548152906001019060200180831161064e57829003601f168201915b50505050508152505090506040518060c00160405280826000015181526020018260200151815260200182604001518152602001826060015181526020018260800151815260200160026000858152602001908152602001600020548152508383815181106106dd576106dc611402565b5b602002602001018190525050806106f390611431565b90506103f8565b508091505090565b600160205280600052604060002060009150905080600001549080600101805461072b906113d0565b80601f0160208091040260200160405190810160405280929190818152602001828054610757906113d0565b80156107a45780601f10610779576101008083540402835291602001916107a4565b820191906000526020600020905b81548152906001019060200180831161078757829003601f168201915b5050505050908060020180546107b9906113d0565b80601f01602080910402602001604051908101604052809291908181526020018280546107e5906113d0565b80156108325780601f1061080757610100808354040283529160200191610832565b820191906000526020600020905b81548152906001019060200180831161081557829003601f168201915b505050505090806003018054610847906113d0565b80601f0160208091040260200160405190810160405280929190818152602001828054610873906113d0565b80156108c05780601f10610895576101008083540402835291602001916108c0565b820191906000526020600020905b8154815290600101906020018083116108a357829003601f168201915b5050505050908060040180546108d5906113d0565b80601f0160208091040260200160405190810160405280929190818152602001828054610901906113d0565b801561094e5780601f106109235761010080835404028352916020019161094e565b820191906000526020600020905b81548152906001019060200180831161093157829003601f168201915b5050505050905085565b6000845111801561096a575060008351115b61097357600080fd5b6040518060a001604052806004548152602001858152602001848152602001838152602001828152506001600060045481526020019081526020016000206000820151816000015560208201518160010190805190602001906109d7929190610b6f565b5060408201518160020190805190602001906109f4929190610b6f565b506060820151816003019080519060200190610a11929190610b6f565b506080820151816004019080519060200190610a2e929190610b6f565b50905050600060026000600454815260200190815260200160002081905550600460008154610a5c90611431565b9190508190555050505050565b606060008054610a78906113d0565b80601f0160208091040260200160405190810160405280929190818152602001828054610aa4906113d0565b8015610af15780601f10610ac657610100808354040283529160200191610af1565b820191906000526020600020905b815481529060010190602001808311610ad457829003601f168201915b5050505050905090565b60026020528060005260406000206000915090505481565b60036020528060005260406000206000915054906101000a900460ff1681565b60045481565b6040518060c001604052806000815260200160608152602001606081526020016060815260200160608152602001600081525090565b828054610b7b906113d0565b90600052602060002090601f016020900481019282610b9d5760008555610be4565b82601f10610bb657805160ff1916838001178555610be4565b82800160010185558215610be4579182015b82811115610be3578251825591602001919060010190610bc8565b5b509050610bf19190610bf5565b5090565b5b80821115610c0e576000816000905550600101610bf6565b5090565b6000604051905090565b600080fd5b600080fd5b6000819050919050565b610c3981610c26565b8114610c4457600080fd5b50565b600081359050610c5681610c30565b92915050565b600060208284031215610c7257610c71610c1c565b5b6000610c8084828501610c47565b91505092915050565b600081519050919050565b600082825260208201905092915050565b60005b83811015610cc3578082015181840152602081019050610ca8565b83811115610cd2576000848401525b50505050565b6000601f19601f8301169050919050565b6000610cf482610c89565b610cfe8185610c94565b9350610d0e818560208601610ca5565b610d1781610cd8565b840191505092915050565b60006020820190508181036000830152610d3c8184610ce9565b905092915050565b600081519050919050565b600082825260208201905092915050565b6000819050602082019050919050565b610d7981610c26565b82525050565b600082825260208201905092915050565b6000610d9b82610c89565b610da58185610d7f565b9350610db5818560208601610ca5565b610dbe81610cd8565b840191505092915050565b600060c083016000830151610de16000860182610d70565b5060208301518482036020860152610df98282610d90565b91505060408301518482036040860152610e138282610d90565b91505060608301518482036060860152610e2d8282610d90565b91505060808301518482036080860152610e478282610d90565b91505060a0830151610e5c60a0860182610d70565b508091505092915050565b6000610e738383610dc9565b905092915050565b6000602082019050919050565b6000610e9382610d44565b610e9d8185610d4f565b935083602082028501610eaf85610d60565b8060005b85811015610eeb5784840389528151610ecc8582610e67565b9450610ed783610e7b565b925060208a01995050600181019050610eb3565b50829750879550505050505092915050565b60006020820190508181036000830152610f178184610e88565b905092915050565b610f2881610c26565b82525050565b600060a082019050610f436000830188610f1f565b8181036020830152610f558187610ce9565b90508181036040830152610f698186610ce9565b90508181036060830152610f7d8185610ce9565b90508181036080830152610f918184610ce9565b90509695505050505050565b600080fd5b600080fd5b7f4e487b7100000000000000000000000000000000000000000000000000000000600052604160045260246000fd5b610fdf82610cd8565b810181811067ffffffffffffffff82111715610ffe57610ffd610fa7565b5b80604052505050565b6000611011610c12565b905061101d8282610fd6565b919050565b600067ffffffffffffffff82111561103d5761103c610fa7565b5b61104682610cd8565b9050602081019050919050565b82818337600083830152505050565b600061107561107084611022565b611007565b90508281526020810184848401111561109157611090610fa2565b5b61109c848285611053565b509392505050565b600082601f8301126110b9576110b8610f9d565b5b81356110c9848260208601611062565b91505092915050565b600080600080608085870312156110ec576110eb610c1c565b5b600085013567ffffffffffffffff81111561110a57611109610c21565b5b611116878288016110a4565b945050602085013567ffffffffffffffff81111561113757611136610c21565b5b611143878288016110a4565b935050604085013567ffffffffffffffff81111561116457611163610c21565b5b611170878288016110a4565b925050606085013567ffffffffffffffff81111561119157611190610c21565b5b61119d878288016110a4565b91505092959194509250565b60006020820190506111be6000830184610f1f565b92915050565b600073ffffffffffffffffffffffffffffffffffffffff82169050919050565b60006111ef826111c4565b9050919050565b6111ff816111e4565b811461120a57600080fd5b50565b60008135905061121c816111f6565b92915050565b60006020828403121561123857611237610c1c565b5b60006112468482850161120d565b91505092915050565b60008115159050919050565b6112648161124f565b82525050565b600060208201905061127f600083018461125b565b92915050565b7f4e487b7100000000000000000000000000000000000000000000000000000000600052601160045260246000fd5b60006112bf82610c26565b91506112ca83610c26565b9250827fffffffffffffffffffffffffffffffffffffffffffffffffffffffffffffffff038211156112ff576112fe611285565b5b828201905092915050565b7f41646420766f7465000000000000000000000000000000000000000000000000600082015250565b6000611340600883610c94565b915061134b8261130a565b602082019050919050565b61135f816111e4565b82525050565b6000606082019050818103600083015261137e81611333565b905061138d6020830185611356565b61139a6040830184610f1f565b9392505050565b7f4e487b7100000000000000000000000000000000000000000000000000000000600052602260045260246000fd5b600060028204905060018216806113e857607f821691505b602082108114156113fc576113fb6113a1565b5b50919050565b7f4e487b7100000000000000000000000000000000000000000000000000000000600052603260045260246000fd5b600061143c82610c26565b91507fffffffffffffffffffffffffffffffffffffffffffffffffffffffffffffffff82141561146f5761146e611285565b5b60018201905091905056fea2646970667358221220ac0270dcbe96a8da342b4cf0dfb50de29cb0932e665136966370fbeeac3a3eef64736f6c63430008090033",
  "immutableReferences": {},
  "source": "// SPDX-License-Identifier: MIT\npragma solidity >=0.4.22 <0.9.0;\n\ncontract Election {\n    string public name;\n    mapping(uint256 => Candidate) public candidates;\n    mapping(uint256 => uint256) public votes;\n    mapping(address => bool) public voters;\n    uint256 public candidateCount = 0;\n\n    struct Candidate {\n        uint256 id;\n        string firstname;\n        string lastname;\n        string description;\n        string age;\n    }\n\n    struct CandidateInformation {\n        uint256 id;\n        string firstname;\n        string lastname;\n        string description;\n        string age;\n        uint256 votes;\n    }\n\n    event Log(string msg, address from, uint256 to);\n\n    constructor() {\n        name = 'Election';\n    }\n\n    function addCandidate(\n        string memory _firstname,\n        string memory _lastname,\n        string memory _description,\n        string memory _age\n    ) public {\n        require(bytes(_firstname).length > 0 && bytes(_lastname).length > 0);\n        candidates[candidateCount] = Candidate(\n            candidateCount,\n            _firstname,\n            _lastname,\n            _description,\n            _age\n        );\n        votes[candidateCount] = 0;\n        ++candidateCount;\n    }\n\n    function addVote(uint256 _id) public {\n        require(_id < candidateCount && !voters[msg.sender]);\n        votes[_id] = votes[_id] + 1;\n        voters[msg.sender] = true;\n        emit Log('Add vote', msg.sender, _id);\n    }\n\n    function getAllCandidates()\n        public\n        view\n        returns (CandidateInformation[] memory)\n    {\n        CandidateInformation[]\n            memory _candidatesInformation = new CandidateInformation[](\n                candidateCount\n            );\n        for (uint256 i = 0; i < candidateCount; ++i) {\n            Candidate memory candidate = candidates[i];\n            _candidatesInformation[i] = CandidateInformation(\n                candidate.id,\n                candidate.firstname,\n                candidate.lastname,\n                candidate.description,\n                candidate.age,\n                votes[i]\n            );\n        }\n        return _candidatesInformation;\n    }\n\n    function read() public view returns (string memory) {\n        return name;\n    }\n}\n",
  "sourcePath": "/home/nesdi/Projects/blockchain/election/src/contracts/Election.sol",
  "compiler": {
    "name": "solc",
    "version": "0.8.9+commit.e5eed63a.Emscripten.clang"
  },
  "schemaVersion": "3.4.3",
  "updatedAt": "2021-12-12T15:12:26.004Z",
  "networkType": "ethereum",
  "devdoc": {
    "kind": "dev",
    "methods": {},
    "version": 1
  },
  "userdoc": {
    "kind": "user",
    "methods": {},
    "version": 1
  }
}