{
  "contractName": "Election",
  "abi": [
    {
      "inputs": [],
      "stateMutability": "nonpayable",
      "type": "constructor"
    },
    {
      "anonymous": false,
      "inputs": [
        {
          "indexed": false,
          "internalType": "string",
          "name": "msg",
          "type": "string"
        },
        {
          "indexed": false,
          "internalType": "address",
          "name": "from",
          "type": "address"
        },
        {
          "indexed": false,
          "internalType": "uint256",
          "name": "to",
          "type": "uint256"
        }
      ],
      "name": "Log",
      "type": "event"
    },
    {
      "inputs": [],
      "name": "candidateCount",
      "outputs": [
        {
          "internalType": "uint256",
          "name": "",
          "type": "uint256"
        }
      ],
      "stateMutability": "view",
      "type": "function",
      "constant": true
    },
    {
      "inputs": [
        {
          "internalType": "uint256",
          "name": "",
          "type": "uint256"
        }
      ],
      "name": "candidates",
      "outputs": [
        {
          "internalType": "uint256",
          "name": "id",
          "type": "uint256"
        },
        {
          "internalType": "string",
          "name": "firstname",
          "type": "string"
        },
        {
          "internalType": "string",
          "name": "lastname",
          "type": "string"
        },
        {
          "internalType": "string",
          "name": "team",
          "type": "string"
        },
        {
          "internalType": "string",
          "name": "age",
          "type": "string"
        }
      ],
      "stateMutability": "view",
      "type": "function",
      "constant": true
    },
    {
      "inputs": [],
      "name": "name",
      "outputs": [
        {
          "internalType": "string",
          "name": "",
          "type": "string"
        }
      ],
      "stateMutability": "view",
      "type": "function",
      "constant": true
    },
    {
      "inputs": [
        {
          "internalType": "address",
          "name": "",
          "type": "address"
        }
      ],
      "name": "voters",
      "outputs": [
        {
          "internalType": "bool",
          "name": "",
          "type": "bool"
        }
      ],
      "stateMutability": "view",
      "type": "function",
      "constant": true
    },
    {
      "inputs": [
        {
          "internalType": "uint256",
          "name": "",
          "type": "uint256"
        }
      ],
      "name": "votes",
      "outputs": [
        {
          "internalType": "uint256",
          "name": "",
          "type": "uint256"
        }
      ],
      "stateMutability": "view",
      "type": "function",
      "constant": true
    },
    {
      "inputs": [
        {
          "internalType": "string",
          "name": "_firstname",
          "type": "string"
        },
        {
          "internalType": "string",
          "name": "_lastname",
          "type": "string"
        },
        {
          "internalType": "string",
          "name": "_team",
          "type": "string"
        },
        {
          "internalType": "string",
          "name": "_age",
          "type": "string"
        }
      ],
      "name": "addCandidate",
      "outputs": [],
      "stateMutability": "nonpayable",
      "type": "function"
    },
    {
      "inputs": [
        {
          "internalType": "uint256",
          "name": "_id",
          "type": "uint256"
        }
      ],
      "name": "addVote",
      "outputs": [],
      "stateMutability": "nonpayable",
      "type": "function"
    },
    {
      "inputs": [],
      "name": "getAllCandidates",
      "outputs": [
        {
          "components": [
            {
              "internalType": "uint256",
              "name": "id",
              "type": "uint256"
            },
            {
              "internalType": "string",
              "name": "firstname",
              "type": "string"
            },
            {
              "internalType": "string",
              "name": "lastname",
              "type": "string"
            },
            {
              "internalType": "string",
              "name": "team",
              "type": "string"
            },
            {
              "internalType": "string",
              "name": "age",
              "type": "string"
            }
          ],
          "internalType": "struct Election.Candidate[]",
          "name": "",
          "type": "tuple[]"
        }
      ],
      "stateMutability": "view",
      "type": "function",
      "constant": true
    },
    {
      "inputs": [],
      "name": "read",
      "outputs": [
        {
          "internalType": "string",
          "name": "",
          "type": "string"
        }
      ],
      "stateMutability": "view",
      "type": "function",
      "constant": true
    }
  ],
  "bytecode": "0x608060405260006004553480156200001657600080fd5b506040518060400160405280600881526020017f456c656374696f6e00000000000000000000000000000000000000000000000081525060009080519060200190620000649291906200006b565b5062000180565b82805462000079906200014a565b90600052602060002090601f0160209004810192826200009d5760008555620000e9565b82601f10620000b857805160ff1916838001178555620000e9565b82800160010185558215620000e9579182015b82811115620000e8578251825591602001919060010190620000cb565b5b509050620000f89190620000fc565b5090565b5b8082111562000117576000816000905550600101620000fd565b5090565b7f4e487b7100000000000000000000000000000000000000000000000000000000600052602260045260246000fd5b600060028204905060018216806200016357607f821691505b602082108114156200017a57620001796200011b565b5b50919050565b61143d80620001906000396000f3fe608060405234801561001057600080fd5b50600436106100935760003560e01c806342b03cc91161006657806342b03cc91461012457806357de26a4146101405780635df813301461015e578063a3ec138d1461018e578063a9a981a3146101be57610093565b80630383badc1461009857806306fdde03146100b45780632e6997fe146100d25780633477ee2e146100f0575b600080fd5b6100b260048036038101906100ad9190610bfc565b6101dc565b005b6100bc61030b565b6040516100c99190610cc2565b60405180910390f35b6100da610399565b6040516100e79190610e8a565b60405180910390f35b61010a60048036038101906101059190610bfc565b6106a9565b60405161011b959493929190610ebb565b60405180910390f35b61013e6004803603810190610139919061105f565b6108ff565b005b610148610a10565b6040516101559190610cc2565b60405180910390f35b61017860048036038101906101739190610bfc565b610aa2565b6040516101859190611136565b60405180910390f35b6101a860048036038101906101a391906111af565b610aba565b6040516101b591906111f7565b60405180910390f35b6101c6610ada565b6040516101d39190611136565b60405180910390f35b600454811080156102375750600360003373ffffffffffffffffffffffffffffffffffffffff1673ffffffffffffffffffffffffffffffffffffffff16815260200190815260200160002060009054906101000a900460ff16155b61024057600080fd5b600160026000838152602001908152602001600020546102609190611241565b60026000838152602001908152602001600020819055506001600360003373ffffffffffffffffffffffffffffffffffffffff1673ffffffffffffffffffffffffffffffffffffffff16815260200190815260200160002060006101000a81548160ff0219169083151502179055507f31f37e75fc861191c989b3f8011596a4c0dd2bd2b255a7072a7d94fdb895a72433826040516103009291906112f2565b60405180910390a150565b600080546103189061135d565b80601f01602080910402602001604051908101604052809291908181526020018280546103449061135d565b80156103915780601f1061036657610100808354040283529160200191610391565b820191906000526020600020905b81548152906001019060200180831161037457829003601f168201915b505050505081565b6060600060045467ffffffffffffffff8111156103b9576103b8610f34565b5b6040519080825280602002602001820160405280156103f257816020015b6103df610ae0565b8152602001906001900390816103d75790505b50905060005b6004548110156106a157600160008281526020019081526020016000206040518060a00160405290816000820154815260200160018201805461043a9061135d565b80601f01602080910402602001604051908101604052809291908181526020018280546104669061135d565b80156104b35780601f10610488576101008083540402835291602001916104b3565b820191906000526020600020905b81548152906001019060200180831161049657829003601f168201915b505050505081526020016002820180546104cc9061135d565b80601f01602080910402602001604051908101604052809291908181526020018280546104f89061135d565b80156105455780601f1061051a57610100808354040283529160200191610545565b820191906000526020600020905b81548152906001019060200180831161052857829003601f168201915b5050505050815260200160038201805461055e9061135d565b80601f016020809104026020016040519081016040528092919081815260200182805461058a9061135d565b80156105d75780601f106105ac576101008083540402835291602001916105d7565b820191906000526020600020905b8154815290600101906020018083116105ba57829003601f168201915b505050505081526020016004820180546105f09061135d565b80601f016020809104026020016040519081016040528092919081815260200182805461061c9061135d565b80156106695780601f1061063e57610100808354040283529160200191610669565b820191906000526020600020905b81548152906001019060200180831161064c57829003601f168201915b5050505050815250508282815181106106855761068461138f565b5b60200260200101819052508061069a906113be565b90506103f8565b508091505090565b60016020528060005260406000206000915090508060000154908060010180546106d29061135d565b80601f01602080910402602001604051908101604052809291908181526020018280546106fe9061135d565b801561074b5780601f106107205761010080835404028352916020019161074b565b820191906000526020600020905b81548152906001019060200180831161072e57829003601f168201915b5050505050908060020180546107609061135d565b80601f016020809104026020016040519081016040528092919081815260200182805461078c9061135d565b80156107d95780601f106107ae576101008083540402835291602001916107d9565b820191906000526020600020905b8154815290600101906020018083116107bc57829003601f168201915b5050505050908060030180546107ee9061135d565b80601f016020809104026020016040519081016040528092919081815260200182805461081a9061135d565b80156108675780601f1061083c57610100808354040283529160200191610867565b820191906000526020600020905b81548152906001019060200180831161084a57829003601f168201915b50505050509080600401805461087c9061135d565b80601f01602080910402602001604051908101604052809291908181526020018280546108a89061135d565b80156108f55780601f106108ca576101008083540402835291602001916108f5565b820191906000526020600020905b8154815290600101906020018083116108d857829003601f168201915b5050505050905085565b60008451118015610911575060008351115b61091a57600080fd5b6040518060a0016040528060045481526020018581526020018481526020018381526020018281525060016000600454815260200190815260200160002060008201518160000155602082015181600101908051906020019061097e929190610b0f565b50604082015181600201908051906020019061099b929190610b0f565b5060608201518160030190805190602001906109b8929190610b0f565b5060808201518160040190805190602001906109d5929190610b0f565b50905050600060026000600454815260200190815260200160002081905550600460008154610a03906113be565b9190508190555050505050565b606060008054610a1f9061135d565b80601f0160208091040260200160405190810160405280929190818152602001828054610a4b9061135d565b8015610a985780601f10610a6d57610100808354040283529160200191610a98565b820191906000526020600020905b815481529060010190602001808311610a7b57829003601f168201915b5050505050905090565b60026020528060005260406000206000915090505481565b60036020528060005260406000206000915054906101000a900460ff1681565b60045481565b6040518060a0016040528060008152602001606081526020016060815260200160608152602001606081525090565b828054610b1b9061135d565b90600052602060002090601f016020900481019282610b3d5760008555610b84565b82601f10610b5657805160ff1916838001178555610b84565b82800160010185558215610b84579182015b82811115610b83578251825591602001919060010190610b68565b5b509050610b919190610b95565b5090565b5b80821115610bae576000816000905550600101610b96565b5090565b6000604051905090565b600080fd5b600080fd5b6000819050919050565b610bd981610bc6565b8114610be457600080fd5b50565b600081359050610bf681610bd0565b92915050565b600060208284031215610c1257610c11610bbc565b5b6000610c2084828501610be7565b91505092915050565b600081519050919050565b600082825260208201905092915050565b60005b83811015610c63578082015181840152602081019050610c48565b83811115610c72576000848401525b50505050565b6000601f19601f8301169050919050565b6000610c9482610c29565b610c9e8185610c34565b9350610cae818560208601610c45565b610cb781610c78565b840191505092915050565b60006020820190508181036000830152610cdc8184610c89565b905092915050565b600081519050919050565b600082825260208201905092915050565b6000819050602082019050919050565b610d1981610bc6565b82525050565b600082825260208201905092915050565b6000610d3b82610c29565b610d458185610d1f565b9350610d55818560208601610c45565b610d5e81610c78565b840191505092915050565b600060a083016000830151610d816000860182610d10565b5060208301518482036020860152610d998282610d30565b91505060408301518482036040860152610db38282610d30565b91505060608301518482036060860152610dcd8282610d30565b91505060808301518482036080860152610de78282610d30565b9150508091505092915050565b6000610e008383610d69565b905092915050565b6000602082019050919050565b6000610e2082610ce4565b610e2a8185610cef565b935083602082028501610e3c85610d00565b8060005b85811015610e785784840389528151610e598582610df4565b9450610e6483610e08565b925060208a01995050600181019050610e40565b50829750879550505050505092915050565b60006020820190508181036000830152610ea48184610e15565b905092915050565b610eb581610bc6565b82525050565b600060a082019050610ed06000830188610eac565b8181036020830152610ee28187610c89565b90508181036040830152610ef68186610c89565b90508181036060830152610f0a8185610c89565b90508181036080830152610f1e8184610c89565b90509695505050505050565b600080fd5b600080fd5b7f4e487b7100000000000000000000000000000000000000000000000000000000600052604160045260246000fd5b610f6c82610c78565b810181811067ffffffffffffffff82111715610f8b57610f8a610f34565b5b80604052505050565b6000610f9e610bb2565b9050610faa8282610f63565b919050565b600067ffffffffffffffff821115610fca57610fc9610f34565b5b610fd382610c78565b9050602081019050919050565b82818337600083830152505050565b6000611002610ffd84610faf565b610f94565b90508281526020810184848401111561101e5761101d610f2f565b5b611029848285610fe0565b509392505050565b600082601f83011261104657611045610f2a565b5b8135611056848260208601610fef565b91505092915050565b6000806000806080858703121561107957611078610bbc565b5b600085013567ffffffffffffffff81111561109757611096610bc1565b5b6110a387828801611031565b945050602085013567ffffffffffffffff8111156110c4576110c3610bc1565b5b6110d087828801611031565b935050604085013567ffffffffffffffff8111156110f1576110f0610bc1565b5b6110fd87828801611031565b925050606085013567ffffffffffffffff81111561111e5761111d610bc1565b5b61112a87828801611031565b91505092959194509250565b600060208201905061114b6000830184610eac565b92915050565b600073ffffffffffffffffffffffffffffffffffffffff82169050919050565b600061117c82611151565b9050919050565b61118c81611171565b811461119757600080fd5b50565b6000813590506111a981611183565b92915050565b6000602082840312156111c5576111c4610bbc565b5b60006111d38482850161119a565b91505092915050565b60008115159050919050565b6111f1816111dc565b82525050565b600060208201905061120c60008301846111e8565b92915050565b7f4e487b7100000000000000000000000000000000000000000000000000000000600052601160045260246000fd5b600061124c82610bc6565b915061125783610bc6565b9250827fffffffffffffffffffffffffffffffffffffffffffffffffffffffffffffffff0382111561128c5761128b611212565b5b828201905092915050565b7f41646420766f7465000000000000000000000000000000000000000000000000600082015250565b60006112cd600883610c34565b91506112d882611297565b602082019050919050565b6112ec81611171565b82525050565b6000606082019050818103600083015261130b816112c0565b905061131a60208301856112e3565b6113276040830184610eac565b9392505050565b7f4e487b7100000000000000000000000000000000000000000000000000000000600052602260045260246000fd5b6000600282049050600182168061137557607f821691505b602082108114156113895761138861132e565b5b50919050565b7f4e487b7100000000000000000000000000000000000000000000000000000000600052603260045260246000fd5b60006113c982610bc6565b91507fffffffffffffffffffffffffffffffffffffffffffffffffffffffffffffffff8214156113fc576113fb611212565b5b60018201905091905056fea2646970667358221220a1730869db52cee0e9192b5e2ebac3b54be1a9321d655f84a789f325b1512d3864736f6c63430008090033",
  "immutableReferences": {},
  "source": "// SPDX-License-Identifier: MIT\npragma solidity >=0.4.22 <0.9.0;\n\ncontract Election {\n    string public name;\n    mapping(uint256 => Candidate) public candidates;\n    mapping(uint256 => uint256) public votes;\n    mapping(address => bool) public voters;\n    uint256 public candidateCount = 0;\n\n    struct Candidate {\n        uint256 id;\n        string firstname;\n        string lastname;\n        string team;\n        string age;\n    }\n\n    event Log(string msg, address from, uint256 to);\n\n    constructor() {\n        name = 'Election';\n    }\n\n    function addCandidate(\n        string memory _firstname,\n        string memory _lastname,\n        string memory _team,\n        string memory _age\n    ) public {\n        require(bytes(_firstname).length > 0 && bytes(_lastname).length > 0);\n        candidates[candidateCount] = Candidate(\n            candidateCount,\n            _firstname,\n            _lastname,\n            _team,\n            _age\n        );\n        votes[candidateCount] = 0;\n        ++candidateCount;\n    }\n\n    function addVote(uint256 _id) public {\n        require(_id < candidateCount && !voters[msg.sender]);\n        votes[_id] = votes[_id] + 1;\n        voters[msg.sender] = true;\n        emit Log('Add vote', msg.sender, _id);\n    }\n\n    function getAllCandidates() public view returns (Candidate[] memory) {\n        Candidate[] memory _candidates = new Candidate[](candidateCount);\n        for (uint256 i = 0; i < candidateCount; ++i) {\n            _candidates[i] = candidates[i];\n        }\n        return _candidates;\n    }\n\n    function read() public view returns (string memory) {\n        return name;\n    }\n}\n",
  "sourcePath": "/home/nesdi/Projects/blockchain/election/src/contracts/Election.sol",
  "compiler": {
    "name": "solc",
    "version": "0.8.9+commit.e5eed63a.Emscripten.clang"
  },
  "schemaVersion": "3.4.3",
  "updatedAt": "2021-12-11T17:49:34.475Z",
  "networkType": "ethereum",
  "devdoc": {
    "kind": "dev",
    "methods": {},
    "version": 1
  },
  "userdoc": {
    "kind": "user",
    "methods": {},
    "version": 1
  }
}